******************************************************************************
                  TI ARM Linker Unix v20.2.0                   
******************************************************************************
>> Linked Thu Jun 18 18:38:32 2020

OUTPUT FILE NAME:   <LCD_I2C_interface.out>
ENTRY POINT SYMBOL: "_c_int00_noargs"  address: 0000073d


MEMORY CONFIGURATION

         name            origin    length      used     unused   attr    fill
----------------------  --------  ---------  --------  --------  ----  --------
  FLASH                 00000000   00100000  000007e6  000ff81a  R  X
  SRAM                  20000000   00040000  00000212  0003fdee  RW X


SEGMENT ALLOCATION MAP

run origin  load origin   length   init length attrs members
----------  ----------- ---------- ----------- ----- -------
00000000    00000000    000007e8   000007e8    r-x
  00000000    00000000    00000208   00000208    r-- .intvecs
  00000208    00000208    000005a6   000005a6    r-x .text
  000007b0    000007b0    00000038   00000038    r-- .cinit
20000000    20000000    00000212   00000000    rw-
  20000000    20000000    00000200   00000000    rw- .stack
  20000200    20000200    0000000c   00000000    rw- .data
  2000020c    2000020c    00000006   00000000    rw- .bss


SECTION ALLOCATION MAP

 output                                  attributes/
section   page    origin      length       input sections
--------  ----  ----------  ----------   ----------------
.intvecs   0    00000000    00000208     
                  00000000    00000208     tm4c1294ncpdt_startup_ccs.obj (.intvecs)

.text      0    00000208    000005a6     
                  00000208    00000320     I2C_LCD.obj (.text)
                  00000528    000000cc     main.obj (.text)
                  000005f4    0000009c     rtsv7M4_T_le_v4SPD16_eabi.lib : memcpy_t2.asm.obj (.text)
                  00000690    00000068                                   : copy_decompress_lzss.c.obj (.text:decompress:lzss:__TI_decompress_lzss)
                  000006f8    00000044                                   : autoinit.c.obj (.text:__TI_auto_init_nobinit_nopinit:__TI_auto_init_nobinit_nopinit)
                  0000073c    00000034                                   : boot_cortex_m.c.obj (.text:_c_int00_noargs:_c_int00_noargs)
                  00000770    0000001c                                   : copy_zero_init.c.obj (.text:decompress:ZI:__TI_zero_init_nomemset:__TI_zero_init_nomemset)
                  0000078c    0000000e                                   : copy_decompress_none.c.obj (.text:decompress:none:__TI_decompress_none)
                  0000079a    0000000c     tm4c1294ncpdt_startup_ccs.obj (.text)
                  000007a6    00000004     rtsv7M4_T_le_v4SPD16_eabi.lib : pre_init.c.obj (.text:_system_pre_init)
                  000007aa    00000004                                   : exit.c.obj (.text:abort:abort)

.cinit     0    000007b0    00000038     
                  000007b0    00000010     (.cinit..data.load) [load image, compression = lzss]
                  000007c0    0000000c     (__TI_handler_table)
                  000007cc    00000004     --HOLE-- [fill = 0]
                  000007d0    00000008     (.cinit..bss.load) [load image, compression = zero_init]
                  000007d8    00000010     (__TI_cinit_table)

.init_array 
*          0    00000000    00000000     UNINITIALIZED

.data      0    20000200    0000000c     UNINITIALIZED
                  20000200    0000000c     I2C_LCD.obj (.data)

.bss       0    2000020c    00000006     UNINITIALIZED
                  2000020c    00000004     (.common:i)
                  20000210    00000001     (.common:RS)
                  20000211    00000001     (.common:error)

.stack     0    20000000    00000200     UNINITIALIZED
                  20000000    00000004     rtsv7M4_T_le_v4SPD16_eabi.lib : boot_cortex_m.c.obj (.stack)
                  20000004    000001fc     --HOLE--

__llvm_prf_cnts 
*          0    20000000    00000000     UNINITIALIZED

MODULE SUMMARY

       Module                          code   ro data   rw data
       ------                          ----   -------   -------
    ./
       I2C_LCD.obj                     800    0         18     
       tm4c1294ncpdt_startup_ccs.obj   12     520       0      
       main.obj                        204    0         0      
    +--+-------------------------------+------+---------+---------+
       Total:                          1016   520       18     
                                                               
    /home/pablovc3/ti/ccs1000/ccs/tools/compiler/ti-cgt-arm_20.2.0.LTS/lib/rtsv7M4_T_le_v4SPD16_eabi.lib
       memcpy_t2.asm.obj               156    0         0      
       copy_decompress_lzss.c.obj      104    0         0      
       autoinit.c.obj                  68     0         0      
       boot_cortex_m.c.obj             52     0         0      
       copy_zero_init.c.obj            28     0         0      
       copy_decompress_none.c.obj      14     0         0      
       exit.c.obj                      4      0         0      
       pre_init.c.obj                  4      0         0      
    +--+-------------------------------+------+---------+---------+
       Total:                          430    0         0      
                                                               
       Stack:                          0      0         512    
       Linker Generated:               0      52        0      
    +--+-------------------------------+------+---------+---------+
       Grand Total:                    1446   572       530    


LINKER GENERATED COPY TABLES

__TI_cinit_table @ 000007d8 records: 2, size/record: 8, table size: 16
	.data: load addr=000007b0, load size=00000010 bytes, run addr=20000200, run size=0000000c bytes, compression=lzss
	.bss: load addr=000007d0, load size=00000008 bytes, run addr=2000020c, run size=00000006 bytes, compression=zero_init


LINKER GENERATED HANDLER TABLE

__TI_handler_table @ 000007c0 records: 3, size/record: 4, table size: 12
	index: 0, handler: __TI_decompress_lzss
	index: 1, handler: __TI_decompress_none
	index: 2, handler: __TI_zero_init


GLOBAL SYMBOLS: SORTED ALPHABETICALLY BY Name 

address   name                          
-------   ----                          
20000200  AdrePCF8574                   
20000204  BackLight_State               
000007ab  C$$EXIT                       
00000245  I2C_Init                      
000002c3  I2C_Master_Init               
00000315  I2C_Master_Stop               
000002a3  I2C_Master_Wait               
000002f3  I2C_Master_Write              
0000032f  IO_Expander_Write             
00000381  LCD_CMD                       
000003a3  LCD_Init                      
00000425  LCD_Set_Cursor                
00000349  LCD_Write_4Bit                
00000475  LCD_Write_Char                
0000049d  LCD_Write_String              
20000210  RS                            
0000079b  ResetISR                      
00000209  SysTick_Init                  
00000225  SysTick_Wait                  
20000208  TPR                           
20000200  __STACK_END                   
00000200  __STACK_SIZE                  
20000200  __STACK_TOP                   
000007d8  __TI_CINIT_Base               
000007e8  __TI_CINIT_Limit              
000007c0  __TI_Handler_Table_Base       
000007cc  __TI_Handler_Table_Limit      
000006f9  __TI_auto_init_nobinit_nopinit
00000691  __TI_decompress_lzss          
0000078d  __TI_decompress_none          
ffffffff  __TI_pprof_out_hndl           
ffffffff  __TI_prof_data_size           
ffffffff  __TI_prof_data_start          
00000000  __TI_static_base__            
00000771  __TI_zero_init_nomemset       
000005f5  __aeabi_memcpy                
000005f5  __aeabi_memcpy4               
000005f5  __aeabi_memcpy8               
ffffffff  __binit__                     
ffffffff  __c_args__                    
UNDEFED   __mpu_init                    
20000000  __stack                       
20000000  __start___llvm_prf_cnts       
20000000  __stop___llvm_prf_cnts        
0000073d  _c_int00_noargs               
UNDEFED   _system_post_cinit            
000007a7  _system_pre_init              
000007ab  abort                         
ffffffff  binit                         
20000211  error                         
00000000  g_pfnVectors                  
2000020c  i                             
00000529  main                          
000005f5  memcpy                        


GLOBAL SYMBOLS: SORTED BY Symbol Address 

address   name                          
-------   ----                          
00000000  __TI_static_base__            
00000000  g_pfnVectors                  
00000200  __STACK_SIZE                  
00000209  SysTick_Init                  
00000225  SysTick_Wait                  
00000245  I2C_Init                      
000002a3  I2C_Master_Wait               
000002c3  I2C_Master_Init               
000002f3  I2C_Master_Write              
00000315  I2C_Master_Stop               
0000032f  IO_Expander_Write             
00000349  LCD_Write_4Bit                
00000381  LCD_CMD                       
000003a3  LCD_Init                      
00000425  LCD_Set_Cursor                
00000475  LCD_Write_Char                
0000049d  LCD_Write_String              
00000529  main                          
000005f5  __aeabi_memcpy                
000005f5  __aeabi_memcpy4               
000005f5  __aeabi_memcpy8               
000005f5  memcpy                        
00000691  __TI_decompress_lzss          
000006f9  __TI_auto_init_nobinit_nopinit
0000073d  _c_int00_noargs               
00000771  __TI_zero_init_nomemset       
0000078d  __TI_decompress_none          
0000079b  ResetISR                      
000007a7  _system_pre_init              
000007ab  C$$EXIT                       
000007ab  abort                         
000007c0  __TI_Handler_Table_Base       
000007cc  __TI_Handler_Table_Limit      
000007d8  __TI_CINIT_Base               
000007e8  __TI_CINIT_Limit              
20000000  __stack                       
20000000  __start___llvm_prf_cnts       
20000000  __stop___llvm_prf_cnts        
20000200  AdrePCF8574                   
20000200  __STACK_END                   
20000200  __STACK_TOP                   
20000204  BackLight_State               
20000208  TPR                           
2000020c  i                             
20000210  RS                            
20000211  error                         
ffffffff  __TI_pprof_out_hndl           
ffffffff  __TI_prof_data_size           
ffffffff  __TI_prof_data_start          
ffffffff  __binit__                     
ffffffff  __c_args__                    
ffffffff  binit                         
UNDEFED   __mpu_init                    
UNDEFED   _system_post_cinit            

[54 symbols]
