******************************************************************************
                  TI ARM Linker Unix v20.2.0                   
******************************************************************************
>> Linked Sun Jun 21 04:52:34 2020

OUTPUT FILE NAME:   <Robo_Garra.out>
ENTRY POINT SYMBOL: "_c_int00_noargs"  address: 00000d41


MEMORY CONFIGURATION

         name            origin    length      used     unused   attr    fill
----------------------  --------  ---------  --------  --------  ----  --------
  FLASH                 00000000   00100000  00000df2  000ff20e  R  X
  SRAM                  20000000   00040000  0000024e  0003fdb2  RW X


SEGMENT ALLOCATION MAP

run origin  load origin   length   init length attrs members
----------  ----------- ---------- ----------- ----- -------
00000000    00000000    00000df8   00000df8    r-x
  00000000    00000000    00000208   00000208    r-- .intvecs
  00000208    00000208    00000baa   00000baa    r-x .text
  00000db8    00000db8    00000040   00000040    r-- .cinit
20000000    20000000    0000024e   00000000    rw-
  20000000    20000000    00000200   00000000    rw- .stack
  20000200    20000200    00000038   00000000    rw- .data
  20000238    20000238    00000016   00000000    rw- .bss


SECTION ALLOCATION MAP

 output                                  attributes/
section   page    origin      length       input sections
--------  ----  ----------  ----------   ----------------
.intvecs   0    00000000    00000208     
                  00000000    00000208     tm4c1294ncpdt_startup_ccs.obj (.intvecs)

.text      0    00000208    00000baa     
                  00000208    000006d0     main.obj (.text)
                  000008d8    00000320     I2C_LCD.obj (.text)
                  00000bf8    0000009c     rtsv7M4_T_le_v4SPD16_eabi.lib : memcpy_t2.asm.obj (.text)
                  00000c94    00000068                                   : copy_decompress_lzss.c.obj (.text:decompress:lzss:__TI_decompress_lzss)
                  00000cfc    00000044                                   : autoinit.c.obj (.text:__TI_auto_init_nobinit_nopinit:__TI_auto_init_nobinit_nopinit)
                  00000d40    00000034                                   : boot_cortex_m.c.obj (.text:_c_int00_noargs:_c_int00_noargs)
                  00000d74    0000001c                                   : copy_zero_init.c.obj (.text:decompress:ZI:__TI_zero_init_nomemset:__TI_zero_init_nomemset)
                  00000d90    0000000e                                   : copy_decompress_none.c.obj (.text:decompress:none:__TI_decompress_none)
                  00000d9e    0000000c     tm4c1294ncpdt_startup_ccs.obj (.text)
                  00000daa    00000004     rtsv7M4_T_le_v4SPD16_eabi.lib : pre_init.c.obj (.text:_system_pre_init)
                  00000dae    00000004                                   : exit.c.obj (.text:abort:abort)

.cinit     0    00000db8    00000040     
                  00000db8    00000019     (.cinit..data.load) [load image, compression = lzss]
                  00000dd1    00000003     --HOLE-- [fill = 0]
                  00000dd4    0000000c     (__TI_handler_table)
                  00000de0    00000008     (.cinit..bss.load) [load image, compression = zero_init]
                  00000de8    00000010     (__TI_cinit_table)

.init_array 
*          0    00000000    00000000     UNINITIALIZED

.data      0    20000200    00000038     UNINITIALIZED
                  20000200    0000002c     main.obj (.data)
                  2000022c    0000000c     I2C_LCD.obj (.data)

.bss       0    20000238    00000016     UNINITIALIZED
                  20000238    00000004     (.common:ADC0)
                  2000023c    00000004     (.common:ADC1)
                  20000240    00000004     (.common:ADC2)
                  20000244    00000004     (.common:ADC3)
                  20000248    00000004     (.common:i)
                  2000024c    00000001     (.common:RS)
                  2000024d    00000001     (.common:error)

.stack     0    20000000    00000200     UNINITIALIZED
                  20000000    00000004     rtsv7M4_T_le_v4SPD16_eabi.lib : boot_cortex_m.c.obj (.stack)
                  20000004    000001fc     --HOLE--

__llvm_prf_cnts 
*          0    20000000    00000000     UNINITIALIZED

MODULE SUMMARY

       Module                          code   ro data   rw data
       ------                          ----   -------   -------
    ./
       main.obj                        1744   0         60     
       I2C_LCD.obj                     800    0         18     
       tm4c1294ncpdt_startup_ccs.obj   12     520       0      
    +--+-------------------------------+------+---------+---------+
       Total:                          2556   520       78     
                                                               
    /home/pablovc3/ti/ccs1000/ccs/tools/compiler/ti-cgt-arm_20.2.0.LTS/lib/rtsv7M4_T_le_v4SPD16_eabi.lib
       memcpy_t2.asm.obj               156    0         0      
       copy_decompress_lzss.c.obj      104    0         0      
       autoinit.c.obj                  68     0         0      
       boot_cortex_m.c.obj             52     0         0      
       copy_zero_init.c.obj            28     0         0      
       copy_decompress_none.c.obj      14     0         0      
       exit.c.obj                      4      0         0      
       pre_init.c.obj                  4      0         0      
    +--+-------------------------------+------+---------+---------+
       Total:                          430    0         0      
                                                               
       Stack:                          0      0         512    
       Linker Generated:               0      61        0      
    +--+-------------------------------+------+---------+---------+
       Grand Total:                    2986   581       590    


LINKER GENERATED COPY TABLES

__TI_cinit_table @ 00000de8 records: 2, size/record: 8, table size: 16
	.data: load addr=00000db8, load size=00000019 bytes, run addr=20000200, run size=00000038 bytes, compression=lzss
	.bss: load addr=00000de0, load size=00000008 bytes, run addr=20000238, run size=00000016 bytes, compression=zero_init


LINKER GENERATED HANDLER TABLE

__TI_handler_table @ 00000dd4 records: 3, size/record: 4, table size: 12
	index: 0, handler: __TI_decompress_lzss
	index: 1, handler: __TI_decompress_none
	index: 2, handler: __TI_zero_init


GLOBAL SYMBOLS: SORTED ALPHABETICALLY BY Name 

address   name                          
-------   ----                          
20000238  ADC0                          
2000023c  ADC1                          
20000240  ADC2                          
20000244  ADC3                          
2000022c  AdrePCF8574                   
20000230  BackLight_State               
00000daf  C$$EXIT                       
2000021c  CountK                        
2000020c  CountL                        
00000915  I2C_Init                      
00000993  I2C_Master_Init               
000009e5  I2C_Master_Stop               
00000973  I2C_Master_Wait               
000009c3  I2C_Master_Write              
000009ff  IO_Expander_Write             
00000a51  LCD_CMD                       
00000a73  LCD_Init                      
00000af5  LCD_Set_Cursor                
00000a19  LCD_Write_4Bit                
00000b45  LCD_Write_Char                
00000b6d  LCD_Write_String              
20000200  Num                           
2000024c  RS                            
00000d9f  ResetISR                      
000008d9  SysTick_Init                  
000008f5  SysTick_Wait                  
20000234  TPR                           
20000220  TerminoK                      
20000210  TerminoL                      
00000209  Timer03AIntHandler            
20000200  __STACK_END                   
00000200  __STACK_SIZE                  
20000200  __STACK_TOP                   
00000de8  __TI_CINIT_Base               
00000df8  __TI_CINIT_Limit              
00000dd4  __TI_Handler_Table_Base       
00000de0  __TI_Handler_Table_Limit      
00000cfd  __TI_auto_init_nobinit_nopinit
00000c95  __TI_decompress_lzss          
00000d91  __TI_decompress_none          
ffffffff  __TI_pprof_out_hndl           
ffffffff  __TI_prof_data_size           
ffffffff  __TI_prof_data_start          
00000000  __TI_static_base__            
00000d75  __TI_zero_init_nomemset       
00000bf9  __aeabi_memcpy                
00000bf9  __aeabi_memcpy4               
00000bf9  __aeabi_memcpy8               
ffffffff  __binit__                     
ffffffff  __c_args__                    
UNDEFED   __mpu_init                    
20000000  __stack                       
20000000  __start___llvm_prf_cnts       
20000000  __stop___llvm_prf_cnts        
00000d41  _c_int00_noargs               
UNDEFED   _system_post_cinit            
00000dab  _system_pre_init              
00000daf  abort                         
20000228  accionK                       
20000218  accionL                       
ffffffff  binit                         
000003e9  clearScreen                   
2000024d  error                         
00000000  g_pfnVectors                  
20000248  i                             
20000204  j                             
20000224  limiteK                       
20000214  limiteL                       
00000441  main                          
00000bf9  memcpy                        
20000208  paso                          


GLOBAL SYMBOLS: SORTED BY Symbol Address 

address   name                          
-------   ----                          
00000000  __TI_static_base__            
00000000  g_pfnVectors                  
00000200  __STACK_SIZE                  
00000209  Timer03AIntHandler            
000003e9  clearScreen                   
00000441  main                          
000008d9  SysTick_Init                  
000008f5  SysTick_Wait                  
00000915  I2C_Init                      
00000973  I2C_Master_Wait               
00000993  I2C_Master_Init               
000009c3  I2C_Master_Write              
000009e5  I2C_Master_Stop               
000009ff  IO_Expander_Write             
00000a19  LCD_Write_4Bit                
00000a51  LCD_CMD                       
00000a73  LCD_Init                      
00000af5  LCD_Set_Cursor                
00000b45  LCD_Write_Char                
00000b6d  LCD_Write_String              
00000bf9  __aeabi_memcpy                
00000bf9  __aeabi_memcpy4               
00000bf9  __aeabi_memcpy8               
00000bf9  memcpy                        
00000c95  __TI_decompress_lzss          
00000cfd  __TI_auto_init_nobinit_nopinit
00000d41  _c_int00_noargs               
00000d75  __TI_zero_init_nomemset       
00000d91  __TI_decompress_none          
00000d9f  ResetISR                      
00000dab  _system_pre_init              
00000daf  C$$EXIT                       
00000daf  abort                         
00000dd4  __TI_Handler_Table_Base       
00000de0  __TI_Handler_Table_Limit      
00000de8  __TI_CINIT_Base               
00000df8  __TI_CINIT_Limit              
20000000  __stack                       
20000000  __start___llvm_prf_cnts       
20000000  __stop___llvm_prf_cnts        
20000200  Num                           
20000200  __STACK_END                   
20000200  __STACK_TOP                   
20000204  j                             
20000208  paso                          
2000020c  CountL                        
20000210  TerminoL                      
20000214  limiteL                       
20000218  accionL                       
2000021c  CountK                        
20000220  TerminoK                      
20000224  limiteK                       
20000228  accionK                       
2000022c  AdrePCF8574                   
20000230  BackLight_State               
20000234  TPR                           
20000238  ADC0                          
2000023c  ADC1                          
20000240  ADC2                          
20000244  ADC3                          
20000248  i                             
2000024c  RS                            
2000024d  error                         
ffffffff  __TI_pprof_out_hndl           
ffffffff  __TI_prof_data_size           
ffffffff  __TI_prof_data_start          
ffffffff  __binit__                     
ffffffff  __c_args__                    
ffffffff  binit                         
UNDEFED   __mpu_init                    
UNDEFED   _system_post_cinit            

[71 symbols]
